:020000040800F2
:10000000A80400209D010008AB0D0008DD0C0008CD
:10001000A90D0008A9020008C11000080000000096
:10002000000000000000000000000000AF0D00080C
:10003000AB02000800000000AD0D0008B10D000883
:10004000B7010008B7010008B7010008B7010008B0
:10005000B7010008B7010008B7010008B7010008A0
:10006000B7010008B7010008B7010008B701000890
:10007000B7010008B7010008B7010008B701000880
:10008000B7010008B7010008B7010008B701000870
:10009000B7010008B7010008B7010008B701000860
:1000A000B7010008B7010008B7010008B701000850
:1000B000B7010008B7010008B7010008B701000840
:1000C000B7010008B7010008B7010008B701000830
:1000D000B7010008B7010008B7010008B701000820
:1000E000B7010008B7010008B7010008B701000810
:1000F000B7010008B7010008B7010008B701000800
:10010000B7010008B7010008B7010008B7010008EF
:10011000B7010008B7010008B7010008B7010008DF
:10012000B7010008B7010008B7010008B7010008CF
:10013000B7010008B7010008B7010008B7010008BF
:10014000B7010008B7010008B7010008B7010008AF
:10015000B7010008B7010008B7010008B70100089F
:10016000B7010008B7010008B7010008B70100088F
:10017000B7010008B7010008B7010008000000003F
:10018000B7010008B7010008DFF80CD000F07AF8DA
:100190000048004729110008A804002006488047AD
:1001A00006480047FEE7FEE7FEE7FEE7FEE7FEE75C
:1001B000FEE7FEE7FEE7FEE73D0E000889010008C6
:1001C0002DE9F05F0546002092469B46884606468C
:1001D000814640241BE0284641464746224600F01F
:1001E00041F853465A46C01A914110D31146184659
:1001F000224600F028F82D1A67EB01084F462246E8
:100200000120002100F01FF817EB00094E41201ECD
:10021000A4F10104DFDC484631462A464346BDE8E6
:10022000F09FD2B201E000F8012B491EFBD27047CB
:100230000022F6E710B513460A4604461946FFF7B2
:10024000F0FF204610BD202A04DB203A00FA02F11C
:10025000002070479140C2F1200320FA03F31943B4
:1002600090407047202A04DB203A21FA02F0002156
:10027000704721FA02F3D040C2F1200291400843B6
:1002800019467047064C074D06E0E06840F0010350
:1002900094E8070098471034AC42F6D3FFF778FF94
:1002A0007411000894110008FEE7704770B5044609
:1002B00000F0F6F80546601C02D0044800780444BB
:1002C00000F0EEF8401BA042FAD370BD54000020AD
:1002D0002DE9F84F00224FF0010803254FF00F0ED3
:1002E0000B6808FA02F42340A3426ED14E68012E37
:1002F00005D0022E03D0112E01D0122E12D1866805
:100300004FEA420C05FA0CF7BE43CF6807FA0CF728
:10031000374387604668A6430C79C4F300149440C1
:1003200034434460C668570005FA07FC8C6826EA27
:100330000C06BC403443C4604C68022C01D0122C23
:1003400013D1D40800EB8404A346D4F820905407BA
:100350004FEAD46A0EFA0AF629EA06090E6906FA85
:100360000AF646EA0906CBF8206006680C7926EA08
:100370000C0604F00304BC40344304604C68E40001
:1003800065D5364C266846F480462660246822F0FF
:10039000030604F480440094314C3444A446D4F859
:1003A00008489607370F0EFA07F6B4432D4EB042B1
:1003B00001D1002624E02C4EB04201D101261FE0DD
:1003C0002A4EB04202D102261AE040E0284EB04246
:1003D00001D1032614E0274EB04201D104260FE0DC
:1003E000254EB04201D105260AE0244EB04201D18B
:1003F000062605E0224EB04201D1072600E008267D
:10040000BE402643CCF808681E4E34684F689C43B3
:10041000FF0300D51C4334601A4C241D26684F6826
:100420009E43BF0300D51E432660164E083634682F
:100430004F689C43FF0200D51C433460114E0C36BC
:1004400034684F689C43BF0200D51C433460521C83
:10045000102AFFF445AFBDE8F88F00004438024091
:100460000030014000000240000402400008024049
:10047000000C02400010024000140240001802402C
:10048000001C0240003C0140426931EA020200D1F6
:100490000904816170470AB1816170470904FBE773
:1004A00001488068704700005400002002488168BD
:1004B0000278114481607047540000200B4810B549
:1004C000016841F400710160016841F480610160DC
:1004D000016841F480710160032000F061F80020A0
:1004E00000F006F800F024F8002010BD003C0240A7
:1004F00070B50D4D04464FF47A712878B1FBF0F0D9
:100500000A490968B1FBF0F000F0D4FA48B9102CA0
:1005100007D200222146501E00F022F800206C6015
:1005200070BD012070BD000054000020600000205C
:100530000A4808B5016841F480410160006800F490
:10054000804000900548001F016841F08051016023
:10055000006800F08050009008BD00004438024060
:10056000F0B40E4B1B680C46C3F30223C3F107051E
:10057000042D00D90425191D072901D2002300E00C
:10058000DB1E012606FA05F1491E214099409E40D6
:10059000761E16403143F0BC00F093BD0CED00E038
:1005A000064900F0070208684FF6FF03184040EACA
:1005B0000220034A10430860704700000CED00E081
:1005C0000000FA052DE9F0470E46050065D0DFF87A
:1005D0001481D8F80000F7B200F00F00B04207D243
:1005E00088F80070D8F8000000F00F00B04254D135
:1005F00028683D4C810712D5400703D5206840F498
:10060000E05020602878000703D5206840F460405F
:1006100020602068A96820F0F00008432060287856
:10062000C0072DD0304968680839012812D0022847
:1006300013D0032811D00968890700292DDA216811
:1006400021F0030101432160FFF72AFF814641F2B7
:10065000883A0EE009688903EFE709688901ECE749
:10066000FFF71EFFA0EB0901514502D90320BDE8A9
:10067000F0872068696800F00C00B0EB810FEFD1C3
:10068000D8F80010404601F00F01B14207D90770B9
:10069000006800F00F00B04201D00120E7E72878A1
:1006A000400705D52068E96820F4E0500843206041
:1006B0002878000706D52068296920F4604040EAC0
:1006C000C100206000F018F82168084AC1F3031146
:1006D000515CC8400649086006480068FFF708FFFB
:1006E0000020C4E7003C02400838024064110008C2
:1006F0006000002058000020154810B5006810F078
:100700000C02144813D04110042A0FD0082A0ED12D
:100710000F4C241F2268236802F03F025B0207D5BA
:100720002068C0F38810A0FB010106E0084610BD58
:100730002168C1F38811A1FB00010023FFF740FDF0
:100740002168C1F30141491C4900B0FBF1F010BD23
:10075000083802400024F4002DE9F84F040076D058
:100760002078DFF838A3CE4DC00749D0DAF8001062
:100770005046C1F38101012908D00068C0F381000F
:1007800002280AD1281D0068400206D52868800387
:1007900036D560680028E2D032E06068B0F5803F6E
:1007A00010D0B0F5A02F286810D020F48030286039
:1007B000286820F4802028606068A0B1FFF770FEF0
:1007C00006460CE0286840F48030F4E740F48020CE
:1007D0002860F7E7FFF764FE801B642873D8286859
:1007E0008003F7D50CE0FFF75BFE064605E000BF8F
:1007F000FFF756FE801B6428F0D828688003F7D4E2
:100800002078DFF8A08280074FF000093ED5DAF8A3
:100810000010504611F00C0F09D00068C0F38100A1
:1008200002280BD19D48001F0068400206D42868AA
:10083000800715D5E068012809D111E0E068B8B15A
:100840000120C8F80000FFF72BFE064605E020E176
:10085000FFF726FE801B0228C0D828688007F7D53E
:100860002868216920F0F80040EAC10028600DE006
:10087000C8F80090FFF714FE064604E0FFF710FEEC
:10088000801B02281FD828688007F7D4207800072B
:1008900022D5824E844861696C3671B101210160B4
:1008A000FFF7FEFD074604E0FFF7FAFDC01B022834
:1008B00009D830688007F7D50EE0C0F80090FFF740
:1008C000EFFD074605E082E0FFF7EAFDC01B0228C6
:1008D0007DD830688007F7D42078400768D5DFF8E6
:1008E000BCB100270BF1380BDBF80000C0000BD4C3
:1008F000DBF8001041F08051CBF80010DBF800006D
:10090000012700F080500090684E3068C00510D478
:10091000306840F480703060FFF7C2FD009005E061
:10092000FFF7BEFD0099401A022850D83068C00574
:10093000F6D55A4EA068683601280FD005283068D1
:1009400010D020F001003060306820F004003060EA
:10095000A068B8B1FFF7A4FD00900FE0306840F048
:100960000100F4E740F004003060F7E7FFF798FD7E
:100970000099411A41F28830814266D83068800778
:10098000F4D50EE0FFF78CFD009007E0FFF788FD3F
:100990000099411A41F28830814256D83068800768
:1009A000F4D42FB1DBF8001021F08051CBF8001007
:1009B000A069D0B3DAF800205146C2F38102022ABE
:1009C0004AD00228484607D0C8F8600000E03CE062
:1009D000FFF766FD04463BE04746C8F86000FFF7B6
:1009E0005FFD064605E000BFFFF75AFD801B0228A9
:1009F0002BD828688001F7D4D4E907010843A16AFD
:100A00002B4A490802EB0141626A41EA821108431C
:100A100094F82C1040EA01612048001F0160012079
:100A20003866FFF73DFD044605E034E0FFF738FD8A
:100A3000001B022809D828688001F7D52BE000BFE9
:100A4000FFF72EFD001B022802D90320BDE8F88F16
:100A500028688001F4D41EE00128F7D00868E26914
:100A600000F48001914214D1226A00F03F019142CA
:100A70000FD147F6C071626A0140914209D1A26A62
:100A800000F44031914204D1E16A00F07060884284
:100A900001D00120DAE70020D8E700000838024042
:100AA0000038024000004742800E4742007000407C
:100AB0000000FFFF10B5401EB0F1807F01D3012080
:100AC00010BD4FF0E02460610F21601700F0F9FACB
:100AD0000020A06107202061002010BD10B5040097
:100AE00003D094F83D0010B107E0012010BD0020B4
:100AF00084F83C00204600F00DF8022084F83D0008
:100B0000211D206800F0A8F9012084F83D00002094
:100B100010BD000008B500680649884208D10648A3
:100B2000016841F480710160006800F480700090F9
:100B300008BD0000002000404038024010B586B0DB
:100B4000044614216846FFF773FB0E49206888426B
:100B500016D10D480021026842F0200202600068B0
:100B600000F0200005904FF4007000900220CDE9C5
:100B7000010103900920049069460448FFF7A8FB8F
:100B800006B010BD00200040303802400014024082
:100B900070B5044690F83C000D4601280DD00126A2
:100BA00084F83C60022084F83D0042B1042A18D049
:100BB000082A2AD00C2A4DD139E0022070BD2068C5
:100BC00000F0BCF92068816941F00801816120686A
:100BD000816921F004018161206881692A691143DA
:100BE00011E0206800F0DAF92068816941F40061C1
:100BF00081612068816921F4806181612068816957
:100C00002A6941EA0221816124E0206800F0FCF9B0
:100C10002068C16941F00801C1612068C16921F003
:100C20000401C1612068C1692A69114311E020688B
:100C300000F01EFA2068C16941F40061C1612068BA
:100C4000C16921F48061C1612068C1692A6941EAF2
:100C50000221C16184F83D60002084F83C0070BD31
:100C600010B5040003D094F83D0010B107E0012056
:100C700010BD002084F83C00204600F00CF8022053
:100C800084F83D00211D206800F0E6F8012084F87A
:100C90003D00002010BD704710B5044600680122D9
:100CA00000F03EF90B492068884202D00A49884288
:100CB00003D1416C41F4004141642068816801F036
:100CC0000701062903D0016841F0010101600020FD
:100CD00010BD00000000014000040140FEE70000DC
:100CE00070B586B014216846FFF7A2FA16480024B2
:100CF000016841F020010160016801F020010591C7
:100D0000016841F080010160016801F080010591F6
:100D1000016841F00101016000680C4E00F0010023
:100D20004FF400450590002229463046FFF7B3FBFB
:100D300001200095CDE90104694630460394FFF790
:100D4000C7FA06B070BD00003038024000140240FF
:100D500010B588B01C216846FFF76AFA114810499F
:100D6000002401605321C0E9011440F2F311C0E9ED
:100D700003148461FFF7B2FE0A48FFF771FF602099
:100D8000CDE900040220029000226946049405483F
:100D9000FFF7FEFE0348FFF7D1FE08B010BD0000CC
:100DA0000020004064000020FEE770477047704755
:100DB000FFF77CBB30B593B030216846FFF738FAB7
:100DC00014210CA8FFF734FA1A480025016841F0F5
:100DD00080510160006800F0805011901648016851
:100DE00041F4804101600068022400F480401190C9
:100DF00001200090000401908001CDE90640082008
:100E000008904FF4A870CDE9090404200B906846BF
:100E1000FFF7A2FC0CA90F2081E831004FF4A0508D
:100E20000F90E002109005210CA8FFF7CBFB13B048
:100E300030BD0000403802400070004005480168A5
:100E400041F47001016003494FF00060803908608F
:100E50007047000088ED00E0F0B50268254C264D93
:100E6000264E274F274B4FF0804CA04209D06045BB
:100E700007D0A84205D0B04203D0B84201D0984272
:100E800004D122F0700E4A6842EA0E02A0421BD042
:100E9000604519D0A84217D0B04215D0B84213D03F
:100EA000984211D0184DA8420ED0184DA8420BD030
:100EB000174DA84208D0174DA84205D0164DA8429C
:100EC00002D0164DA84203D122F44075CA682A43C5
:100ED0004D6922F080022A4302608A68C2620A6871
:100EE0008262A04201D0984201D1096901630121C7
:100EF0004161F0BD000001400004004000080040D6
:100F0000000C00400004014000400140004401404A
:100F10000048014000180040001C00400020004034
:100F200010B501F01F030121046A99408C4304624B
:100F3000016A9A401143016210BD0000F0B5026AD7
:100F400022F001020262036A42688469124E24F0B0
:100F500073050C682C4323F002058B682B430D4D61
:100F6000A84201D0B04205D123F00807CB683B432B
:100F700023F00403A84201D0B04205D14D6922F408
:100F8000407215438A692A4342608461496841631B
:100F90000362F0BD0000014000040140F0B5026AA8
:100FA00022F010020262026A436884690D6824F428
:100FB000E64444EA05248D6822F0200242EA051244
:100FC0000F4D104EA84201D0B04206D1CF6822F09A
:100FD000800242EA071222F04002A84201D0B04249
:100FE00007D14D6923F4406343EA85038D6943EAE1
:100FF000850343608461496881630262F0BD00003B
:101000000000014000040140F0B5026A22F4807241
:101010000262026A4368C46922F4007224F0730514
:101020000C68124E2C438D6842EA05220E4DA842F0
:1010300001D0B04206D1CF6822F4006242EA072212
:1010400022F48062A84201D0B04207D14D6923F456
:10105000405343EA05138D6943EA05134360C461B5
:101060004968C1630262F0BD000001400004014014
:1010700030B5026A22F480520262046A4268C3698F
:101080000D6823F4E64343EA05238D6824F40054F5
:1010900044EA0534084DA84202D0084DA84204D1C4
:1010A0004D6922F4804242EA85124260C361496878
:1010B0000164046230BD00000000014000040140F2
:1010C000FEE70907090E002804DB00F1E02080F8A4
:1010D0000014704700F00F0000F1E02080F8141DAC
:1010E000704702E008C8121F08C1002AFAD17047F1
:1010F0007047002001E001C1121F002AFBD1704798
:10110000074A084B911E08781B6832F810205A6372
:10111000401CC0B20870282801D300200870704716
:101120000200002064000020FFF7C8F9FFF742FE2C
:10113000FFF7D6FDFFF70CFE00210848FFF7ACFDD6
:10114000074D4FF400446420FFF7B0F821462846CD
:10115000FFF79AF9FFF7D4FFF5E7000064000020DD
:10116000001402400000000000000000010203041F
:101170000607080994110008000000206400000020
:10118000E2100008F8110008640000204404000088
:10119000F210000801000100140028003C0050007B
:1011A000640078008C00A000B400C800DC00F000EF
:1011B000040118012C014001540168017C019001D7
:1011C0007C016801540140012C0118010401F00068
:1011D000DC00C800B400A0008C007800640050005F
:1011E0003C00280014000000010000001000000076
:0811F000000000000024F400DF
:040000050800018965
:00000001FF
