:020000040800F2
:10000000180400209D010008FF0B0008510B000898
:10001000FD0B0008A9020008AD0C0008000000005C
:10002000000000000000000000000000030C0008B9
:10003000AB02000800000000010C0008050C0008DD
:10004000B7010008B7010008B7010008B7010008B0
:10005000B7010008B7010008AD020008B7010008A9
:10006000B7010008B7010008B7010008B701000890
:10007000B7010008B7010008B7010008B701000880
:10008000B7010008B7010008B7010008B701000870
:10009000B7010008B7010008B7010008B701000860
:1000A000B7010008B7010008B7010008B701000850
:1000B000B7010008B7010008B7010008B701000840
:1000C000B7010008B7010008B7010008B701000830
:1000D000B7010008B7010008B7010008B701000820
:1000E000B7010008B7010008B7010008B701000810
:1000F000B7010008B7010008B7010008B701000800
:10010000B7010008B7010008B7010008B7010008EF
:10011000B7010008B7010008B7010008B7010008DF
:10012000B7010008B7010008B7010008B7010008CF
:10013000B7010008B7010008B7010008B7010008BF
:10014000B7010008B7010008B7010008B7010008AF
:10015000B7010008B7010008B7010008B70100089F
:10016000B7010008B7010008B7010008B70100088F
:10017000B7010008B7010008B7010008000000003F
:10018000B7010008B7010008DFF80CD000F07AF8DA
:1001900000480047ED0C000818040020064880477E
:1001A00006480047FEE7FEE7FEE7FEE7FEE7FEE75C
:1001B000FEE7FEE7FEE7FEE7910C00088901000874
:1001C0002DE9F05F0546002092469B46884606468C
:1001D000814640241BE0284641464746224600F01F
:1001E00041F853465A46C01A914110D31146184659
:1001F000224600F028F82D1A67EB01084F462246E8
:100200000120002100F01FF817EB00094E41201ECD
:10021000A4F10104DFDC484631462A464346BDE8E6
:10022000F09FD2B201E000F8012B491EFBD27047CB
:100230000022F6E710B513460A4604461946FFF7B2
:10024000F0FF204610BD202A04DB203A00FA02F11C
:10025000002070479140C2F1200320FA03F31943B4
:1002600090407047202A04DB203A21FA02F0002156
:10027000704721FA02F3D040C2F1200291400843B6
:1002800019467047064C074D06E0E06840F0010350
:1002900094E8070098471034AC42F6D3FFF778FF94
:1002A000300D0008500D0008FEE77047012000F0F7
:1002B0002FB8000070B5044600F01EF90546601C1A
:1002C00002D004480078044400F016F9401BA04214
:1002D000FAD370BD0400002010B501280ED1094CDE
:1002E000207840B94FF40041074800F0F9F8207831
:1002F00028B10020207005490120086010BD0120B0
:10030000F8E700000000002000140240143C014007
:10031000044910B50A68024202D00860FFF7DCFF0A
:1003200010BD0000143C01402DE9F84F00224FF0B1
:10033000010803254FF00F0E0B6808FA02F4234062
:10034000A3426ED14E68012E05D0022E03D0112E8D
:1003500001D0122E12D186684FEA420C05FA0CF732
:10036000BE43CF6807FA0CF7374387604668A64359
:100370000C79C4F30014944034434460C6685700B9
:1003800005FA07FC8C6826EA0C06BC403443C460BE
:100390004C68022C01D0122C13D1D40800EB840439
:1003A000A346D4F8209054074FEAD46A0EFA0AF60E
:1003B00029EA06090E6906FA0AF646EA0906CBF8A2
:1003C000206006680C7926EA0C0604F00304BC40A1
:1003D000344304604C68E40065D5364C266846F426
:1003E00080462660246822F0030604F480440094CA
:1003F000314C3444A446D4F808489607370F0EFA17
:1004000007F6B4432D4EB04201D1002624E02C4E15
:10041000B04201D101261FE02A4EB04202D102268D
:100420001AE040E0284EB04201D1032614E0274EE6
:10043000B04201D104260FE0254EB04201D105267D
:100440000AE0244EB04201D1062605E0224EB04219
:1004500001D1072600E00826BE402643CCF80868F4
:100460001E4E34684F689C43FF0300D51C43346024
:100470001A4C241D26684F689E43BF0300D51E43B7
:100480002660164E083634684F689C43FF0200D53C
:100490001C433460114E0C3634684F689C43BF02D5
:1004A00000D51C433460521C102AFFF445AFBDE850
:1004B000F88F000044380240003001400000024044
:1004C0000004024000080240000C024000100240FC
:1004D0000014024000180240001C0240003C014091
:1004E000426931EA020200D10904816170470AB110
:1004F000816170470904FBE701488068704700008C
:10050000040000200248816802781144816070472D
:10051000040000200B4810B5016841F4007101602F
:10052000016841F480610160016841F480710160FB
:10053000032000F06FF8002000F006F800F024F827
:10054000002010BD003C024070B50D4D04464FF434
:100550007A712878B1FBF0F00A490968B1FBF0F034
:1005600000F0E2FA48B9102C07D200222146501EB2
:1005700000F030F800206C6070BD012070BD0000FC
:1005800004000020100000200A4808B5016841F46A
:1005900080410160006800F4804000900548001F21
:1005A000016841F080510160006800F080500090C7
:1005B00008BD000044380240002809DB00F01F029B
:1005C000012191404009800000F1E020C0F80011B5
:1005D00070470000F0B40E4B1B680C46C3F30223B7
:1005E000C3F10705042D00D90425191D072901D2DF
:1005F000002300E0DB1E012606FA05F1491E21401A
:1006000099409E40761E16403143F0BC00F04FBB2F
:100610000CED00E0064900F0070208684FF6FF0302
:10062000184040EA0220034A104308607047000067
:100630000CED00E00000FA052DE9F0470E4605003C
:1006400065D0DFF81481D8F80000F7B200F00F0091
:10065000B04207D288F80070D8F8000000F00F0010
:10066000B04254D128683D4C810712D5400703D5CC
:10067000206840F4E05020602878000703D5206807
:1006800040F4604020602068A96820F0F000084332
:1006900020602878C0072DD03049686808390128C3
:1006A00012D0022813D0032811D009688907002925
:1006B0002DDA216821F0030101432160FFF71CFFBF
:1006C000814641F2883A0EE009688903EFE709683C
:1006D0008901ECE7FFF710FFA0EB0901514502D9B2
:1006E0000320BDE8F0872068696800F00C00B0EBDB
:1006F000810FEFD1D8F80010404601F00F01B14250
:1007000007D90770006800F00F00B04201D0012047
:10071000E7E72878400705D52068E96820F4E0502D
:10072000084320602878000706D52068296920F44E
:10073000604040EAC100206000F018F82168084AD3
:10074000C1F30311515CC8400649086006480068BF
:10075000FFF7FAFE0020C4E7003C024008380240E0
:10076000200D00081000002008000020154810B5DA
:10077000006810F00C02144813D04110042A0FD066
:10078000082A0ED10F4C241F2268236802F03F0272
:100790005B0207D52068C0F38810A0FB010106E0CA
:1007A000084610BD2168C1F38811A1FB0001002398
:1007B000FFF706FD2168C1F30141491C4900B0FB68
:1007C000F1F010BD083802400024F4002DE9F84F84
:1007D000040076D02078DFF838A3CE4DC00749D08A
:1007E000DAF800105046C1F38101012908D00068F1
:1007F000C0F3810002280AD1281D0068400206D5F6
:100800002868800336D560680028E2D032E060684E
:10081000B0F5803F10D0B0F5A02F286810D020F49C
:1008200080302860286820F4802028606068A0B1AB
:10083000FFF762FE06460CE0286840F48030F4E7DB
:1008400040F480202860F7E7FFF756FE801B6428FD
:1008500073D828688003F7D50CE0FFF74DFE0646F5
:1008600005E000BFFFF748FE801B6428F0D8286829
:100870008003F7D42078DFF8A08280074FF00009CA
:100880003ED5DAF80010504611F00C0F09D0006880
:10089000C0F3810002280BD19D48001F0068400270
:1008A00006D42868800715D5E068012809D111E031
:1008B000E068B8B10120C8F80000FFF71DFE064649
:1008C00005E020E1FFF718FE801B0228C0D8286849
:1008D0008007F7D52868216920F0F80040EAC100B8
:1008E00028600DE0C8F80090FFF706FE064604E019
:1008F000FFF702FE801B02281FD828688007F7D464
:100900002078000722D5824E844861696C3671B127
:1009100001210160FFF7F0FD074604E0FFF7ECFD61
:10092000C01B022809D830688007F7D50EE0C0F850
:100930000090FFF7E1FD074605E082E0FFF7DCFDF0
:10094000C01B02287DD830688007F7D42078400784
:1009500068D5DFF8BCB100270BF1380BDBF80000DD
:10096000C0000BD4DBF8001041F08051CBF8001030
:10097000DBF80000012700F080500090684E3068DE
:10098000C00510D4306840F480703060FFF7B4FDCB
:10099000009005E0FFF7B0FD0099401A022850D8FA
:1009A0003068C005F6D55A4EA068683601280FD0C9
:1009B0000528306810D020F001003060306820F049
:1009C00004003060A068B8B1FFF796FD00900FE01A
:1009D000306840F00100F4E740F004003060F7E7D1
:1009E000FFF78AFD0099411A41F28830814266D8AA
:1009F00030688007F4D50EE0FFF77EFD009007E039
:100A0000FFF77AFD0099411A41F28830814256D8A9
:100A100030688007F4D42FB1DBF8001021F080514A
:100A2000CBF80010A069D0B3DAF800205146C2F329
:100A30008102022A4AD00228484607D0C8F860003E
:100A400000E03CE0FFF758FD04463BE04746C8F8AD
:100A50006000FFF751FD064605E000BFFFF74CFDC3
:100A6000801B02282BD828688001F7D4D4E907011D
:100A70000843A16A2B4A490802EB0141626A41EA34
:100A80008211084394F82C1040EA01612048001FAD
:100A9000016001203866FFF72FFD044605E034E0D1
:100AA000FFF72AFD001B022809D828688001F7D526
:100AB0002BE000BFFFF720FD001B022802D9032016
:100AC000BDE8F88F28688001F4D41EE00128F7D033
:100AD0000868E26900F48001914214D1226A00F0B2
:100AE0003F0191420FD147F6C071626A01409142C5
:100AF00009D1A26A00F44031914204D1E16A00F0C8
:100B00007060884201D00120DAE70020D8E70000B9
:100B1000083802400038024000004742800E474239
:100B2000007000400000FFFF10B5401EB0F1807F54
:100B300001D3012010BD4FF0E02460610F21601748
:100B400000F0B5F80020A06107202061002010BD52
:100B5000FEE70000F0B587B014216846FFF768FB98
:100B600022480024016841F080010160016801F021
:100B700080010591016841F002010160016801F006
:100B800002010591016841F020010160016801F056
:100B900020010591016841F0010101600068144FD6
:100BA00000F001004FF4004605900022314638461F
:100BB000FFF79DFC0F480125CDE90050022002906F
:100BC00069460D48FFF7B0FB0096CDE90154694630
:100BD00038460394FFF7A8FB002211460620FFF7D2
:100BE000F9FC0620FFF7E8FC07B0F0BD3038024002
:100BF000001402400000111000040240FEE770479C
:100C000070477047FFF77EBC30B593B0302168461F
:100C1000FFF70EFB14210CA8FFF70AFB1A4800256A
:100C2000016841F080510160006800F0805011902F
:100C30001648016841F4804101600068022400F414
:100C40008040119001200090000401908001CDE9C6
:100C50000640082008904FF4A870CDE9090404204C
:100C60000B906846FFF7B2FD0CA90F2081E8310018
:100C70004FF4A0500F90E002109005210CA8FFF750
:100C8000DBFC13B030BD0000403802400070004073
:100C90000548016841F47001016003494FF00060AC
:100CA000803908607047000088ED00E0FEE7090722
:100CB000090E002804DB00F1E02080F800147047E2
:100CC00000F00F0000F1E02080F8141D704702E0F2
:100CD00008C8121F08C1002AFAD1704770470020C7
:100CE00001E001C1121F002AFBD17047FFF712FC7F
:100CF000FFF78AFFFFF72EFF084C0A20FFF7DAFA0A
:100D000020780028F9D01420FFF7D4FA207810B109
:100D100000202070F1E70120FBE700000000002028
:100D2000000000000000000001020304060708099B
:100D3000500D00080000002014000000CE0C000838
:100D4000640D00081400002004040000DE0C0008FC
:100D50000000000001000000100000000000000082
:040D60000024F40077
:040000050800018965
:00000001FF
